:1000000012C019C018C017C016C015C014C013C044
:1000100012C011C010C00FC00EC00DC00CC00BC06C
:100020000AC009C008C011241FBECFE5D4E0DEBF5E
:10003000CDBF02D023C0E4CFB89AB99A84B314BA22
:1000400084B314BA84B314BAAA9AAB9AAC9AC0987F
:10005000C19828EA31E69A9902C0C09A0AC09B99D1
:1000600002C0C09803C09C9903C0C09AC19A02C044
:10007000C098C198C9010197F1F7EDCFF894FFCF6F
:00000001FF
